:1400000071C0CECBDCCBDCCBDCCBDCCBDFCBDCCBDCCBD9CBEA
:14001400F9CBF9CB14CC14CC14CC14CC14CC4275696C7420D0
:14002800776974682044454D4F20636F6D70696C65722E20FA
:14003C004E4F4E2D434F4D4D45524349414C20555345204F40
:140050004E4C5920687474703A2F2F696D6167656372616692
:14006400742E636F6D0A0000803F00007F430000B443000025
:1400780000000100000000000001000101010001007847723D
:14008C00793F02BC9E4146B69B3FECAFAC41029AA83FF01624
:1400A000A3419B55BF3F422052C27B14C63F8C9B3CC2FBCB85
:1400B400BE3F22CE28C2C8985B3F4D848D3D933AC93FA69BB6
:1400C800C4BC96214E3F022B473EFF0000000000000041016D
:1400DC001D0000003E000901CFE5D2E0CDBFDEBFC451D040F7
:1400F0000AEA08830024EAECF0E011E0ED3AF10711F001920F
:14010400FBCF0083EAE7F0E0A0E6B0E010E000E00BBFE43E27
:14011800F10721F0C89531960D92F9CF01D0FFCF229794D87B
:14012C0031D833C120906800222049F48BB386608BBB222778
:1401400001E004D80093680026C140916800433481F0443473
:1401540009F41FC1483409F41CC1433408F416C1403509F4A8
:1401680081C0423509F4CCC00FC180916100909162008130CC
:14017C00E0E09E0709F06BC024E030E00027112707D180918A
:140190009E018130E1F722270091AB01D7D72090AB012092F1
:1401A400D40024E030E001E010E0F6D080919E018130E1F78F
:1401B80022270091AB01C6D72090AB012092D30024E030E01B
:1401CC0002E010E0E5D080919E018130E1F722270091AB01D9
:1401E000B5D72090AB013324398228822091D30033270091F8
:1401F400D400112729D12090CA003090CB00232C3324209294
:14020800D1008091CA008F7F8093D20022270091D00098D72A
:14021C0022270091CF0094D722270091CE0090D722270091D1
:14023000D2008CD722270091D10088D722270091CD0084D779
:1402440022270091CC0080D72227009165007CD7222420921F
:1402580068002224209268003324309262002092610095C0E7
:14026C0080916100909162008130E0E09E0709F03CC041E05D
:1402800050E00AC0222702E061D70093AC01202F8A0174D7A8
:140294004F5F5F4F87E090E0481759078CF349E050E00BC0C1
:1402A800222703E04FD7A02EA092AC012A2D8A0161D74F5F7B
:1402BC005F4F81E590E04817590784F348EC50E00BC02227FC
:1402D00004E03CD7A02EA092AC012A2D8A014ED74F5F5F4F13
:1402E4008AED90E04817590784F313D422242092680022245C
:1402F800209268003324309262002092610047C080916100D1
:14030C00909162008130E0E09E0799F541E050E009C08A0111
:1403200026D7A02EA092AC01222710D74F5F5F4F87E090E0BC
:140334004817590794F349E050E009C08A0115D7A02EA092D6
:14034800AC012227FFD64F5F5F4F81E590E04817590794F35E
:14035C0048EC50E009C08A0104D7A02EA092AC012227EED640
:140370004F5F5F4F8AED90E04817590794F322242092680090
:140384003324309262002092610003C0222420926800CCCE1A
:14039800229608950030010769F00130E0E01E0761F00230D2
:1403AC00E0E01E0759F00330E0E01E0751F00BC0D998DA9808
:1403C00008C0D99ADA9A05C0D99ADA9802C0D998DA9A2224E3
:1403D40020929E012092AB012130E0E03E0769F02230E0E0A5
:1403E8003E0781F02330E0E03E0799F02430E0E03E07B9F068
:1403FC001DC022242BBC87E28ABD2DBC2CBC16C022242BBC5F
:140410008EE48ABD2DBC2CBC0FC086E190E09BBD8ABD2224C3
:140424002DBC2CBC07C087EB96E09BBD8ABD22242DBC2CBC8E
:14043800222422BE8EB584608EBD83B7876083BF789408950C
:14044C003A932A9354DA58012C97488D598D809169008130E2
:1404600061F5850182DB80E790E09A938A9376DC84E790E001
:140474009A938A9333DB45DB58010E891F8973DB88E790E037
:140488009A938A9367DC8CE790E09A938A9324DB36DB1F8BEC
:14049C000E8B8A0164DB80E890E09A938A9358DC84E890E0B7
:1404B0009A938A9315DB27DBA801C5018030E0E09E0714F470
:1404C400AA24BB248FEF90E08A159B050CF45C018E899F89AE
:1404D8008030E0E09E0724F4002411241F8A0E8A8FEF90E05B
:1404EC000E881F888015910514F49F8B8E8B4030E0E05E07B4
:1405000014F4442755278FEF90E08417950714F44FEF50E05D
:1405140080916C00813009F02FC0B501EE88FF886A018B0113
:1405280020DB88E890E09A938A9314DC8CE890E09A938A937C
:14053C00D1DAE3DA5801870112DB80E990E09A938A9306DC70
:1405500084E990E09A938A93C3DAD5DA1F8B0E8B860103DB7C
:1405640088E990E09A938A93F7DB8CE990E09A938A93B4DAC9
:14057800C6DAA801C5018030E0E09E0714F4AA24BB248FEF18
:14058C0090E08A159B050CF45C018E899F898030E0E09E07FB
:1405A00024F4002411241F8A0E8A8FEF90E00E881F888015D5
:1405B400910514F49F8B8E8B4030E0E05E0714F444275527CE
:1405C8008FEF90E08417950714F44FEF50E00E881F88A01493
:1405DC00B10414F0750102C0EE88FF884E155F050CF07A01DF
:1405F0000E881F880A141B0414F0650102C0CE88DF88C416BA
:14060400D5060CF06A0117012C183D0861018701AADA088702
:1406180019872A873B87EE2089F4FF2079F406E710E0B4D93A
:14062C000C831D832E833F8306E710E0ADD9088319832A83E1
:140640003B8367C00FEF10E09601B8D9970115D98CDA0C8330
:140654001D832E833F83EA14FB04D9F4CC2011F4DD2079F05E
:140668002E893F89241B350B0CE310E0A3D9960100D977DA64
:14067C00088319832A833B8346C006E710E084D90883198371
:140690002A833B833EC00E881F88E014F104E1F4CC2011F401
:1406A400DD2081F09A012A193B090CE310E084D99601E1D826
:1406B80008581F4F56DA088319832A833B8325C006E710E0DC
:1406CC0063D9088319832A833B831DC0CC2011F4DD2091F000
:1406E00095010E881F88201931090CE310E066D99601C3D870
:1406F40000511F4F38DA088319832A833B8307C006E710E0EB
:1407080045D9088319832A833B83288039804A805B8006E73A
:14071C0010E03AD93A932A931A930A9381019201C0DB94F4BA
:14073000288039804A805B8002E710E02BD93A932A931A939B
:140744000A9381019201D3D9088319832A833B832880398050
:140758004A805B8006E710E019D93A932A931A930A938101C3
:14076C0092019FDB09F52C803D804E805F8006E710E00AD998
:140780003A932A931A930A938101920190DB91F42884398423
:140794004A845B8406E710E0FBD83A932A931A930A9381019E
:1407A800920181DB19F4222420926D0080916D00813009F0B4
:1407BC0018C1288039804A805B8002E710E0E4D83A932A932B
:1407D0001A930A9381019201F1D910939A01009399013093BE
:1407E4009C0120939B012C803D804E805F800EE610E0CED875
:1407F8003A932A931A930A9381019201DBD910939601009383
:14080C0095013093980120939701288439844A845B840EE691
:1408200010E0B8D83A932A931A930A9381019201C5D910931A
:14083400920100939101309394012093930120919B0130914B
:140848009C010091990110919A0180EA90E09A938A9380DA1A
:14085C0084EA90E09A938A933DD9088319832A833B83209107
:14087000970130919801009195011091960188EA90E09A9314
:140884008A936ADA8CEA90E09A938A9327D90C831D832E83EF
:140898003F832091930130919401009191011091920180EB2D
:1408AC0090E09A938A9354DA84EB90E09A938A9311D90887AE
:1408C00019872A873B87288039804A805B8006E710E060D8F6
:1408D4003A932A931A930A9381019201E6DA3CF406E710E05A
:1408E80055D8088319832A833B83CE010AE610E04DD89A933C
:1408FC008A93CDDA3CF40AE610E046D8088319832A833B8364
:140910002C803D804E805F8006E710E03BD83A932A931A9396
:140924000A9381019201C1DA3CF406E710E030D80C831D832E
:140938002E833F83CE0104960AE610E027D89A938A93A7DA25
:14094C003CF40AE610E020D80C831D832E833F832884398484
:140960004A845B8406E710E015D83A932A931A930A938101B6
:1409740092019BDA3CF406E710E00AD8088719872A873B87D6
:14098800CE0108960AE610E001D89A938A9381DA3CF40AE670
:14099C0010E0FAD7088719872A873B8702E710E0F3D7CE0172
:1409B0009A938A93D3D9088319832A833B830EE610E0E8D708
:1409C400CE0104969A938A93C7D90C831D832E833F830EE636
:1409D80010E0DCD7CE0108969A938A93BBD9088719872A873D
:1409EC003B87288039804A805B8006E710E0CCD73A932A9325
:140A00001A930A938101920152DA3CF406E710E0C1D7088327
:140A140019832A833B83CE0102E710E0B9D79A938A9339DA32
:140A28003CF402E710E0B2D7088319832A833B832C803D802D
:140A3C004E805F8006E710E0A7D73A932A931A930A93810148
:140A500092012DDA3CF406E710E09CD70C831D832E833F83D6
:140A6400CE0104960EE610E093D79A938A9313DA3CF40EE66C
:140A780010E08CD70C831D832E833F83288439844A845B845F
:140A8C0006E710E081D73A932A931A930A938101920107DA57
:140AA0003CF406E710E076D7088719872A873B87CE010896D9
:140AB4000EE610E06DD79A938A93EDD93CF40EE610E066D7A5
:140AC800088719872A873B87A092D0000E881F880092CF00D8
:140ADC004093CE00088119812A813B810ED81093CB000093F4
:140AF000CA000C811D812E813F8105D80093CD000885198526
:140B04002A853B85FED70093CC002C96E9D622960895FCD692
:140B1800229701E010E027D30093690002E010E022D30093EF
:140B2C006A0003E010E01DD3A02EA0926B0004E010E017D35F
:140B4000A02EA0926C0005E010E011D3A02EA0926D0006E029
:140B540010E00BD3A02EA0926E00442755270DC08A01075FAC
:140B68001F4F01D3A02E89EE90E0FA01E80FF91FA0824F5FA8
:140B7C005F4F84E090E04817590774F39983888329EE30E06F
:140B900004E710E05BD6442755270DC08A01035F1F4FE5D27F
:140BA400A02E89EE90E0FA01E80FF91FA0824F5F5F4F84E09C
:140BB80090E04817590774F39983888329EE30E000E710E06E
:140BCC003FD6442755270DC08A010F5E1F4FC9D2A02E89EE06
:140BE00090E0FA01E80FF91FA0824F5F5F4F84E090E04817D6
:140BF400590774F39983888329EE30E00CE710E023D6442791
:140C080055270DC08A010B5E1F4FADD2A02E89EE90E0FA01FE
:140C1C00E80FF91FA0824F5F5F4F84E090E04817590774F33D
:140C30009983888329EE30E008E710E007D6442755270DC0F2
:140C44008A01075E1F4F91D2A02E89EE90E0FA01E80FF91F1C
:140C5800A0824F5F5F4F84E090E04817590774F399838883E9
:140C6C0029EE30E004E810E0EBD5442755270DC08A01035E11
:140C80001F4F75D2A02E89EE90E0FA01E80FF91FA0824F5F1C
:140C94005F4F84E090E04817590774F39983888329EE30E056
:140CA80000E810E0CFD5442755270DC08A010F5D1F4F59D278
:140CBC00A02E89EE90E0FA01E80FF91FA0824F5F5F4F84E083
:140CD00090E04817590774F39983888329EE30E00CE810E048
:140CE400B3D5442755270DC08A010B5D1F4F3DD2A02E89EE0B
:140CF80090E0FA01E80FF91FA0824F5F5F4F84E090E04817BD
:140D0C00590774F39983888329EE30E008E810E097D5442707
:140D200055270DC08A01075D1F4F21D2A02E89EE90E0FA0176
:140D3400E80FF91FA0824F5F5F4F84E090E04817590774F324
:140D48009983888329EE30E004E910E07BD5442755270DC068
:140D5C008A01035D1F4F05D2A02E89EE90E0FA01E80FF91F94
:140D7000A0824F5F5F4F84E090E04817590774F399838883D0
:140D840029EE30E000E910E05FD5442755270DC08A010F5C7D
:140D98001F4FE9D1A02E89EE90E0FA01E80FF91FA0824F5F90
:140DAC005F4F84E090E04817590774F39983888329EE30E03D
:140DC0000CE910E043D5442755270DC08A010B5C1F4FCDD170
:140DD400A02E89EE90E0FA01E80FF91FA0824F5F5F4F84E06A
:140DE80090E04817590774F39983888329EE30E008E910E032
:140DFC0027D5442755270DC08A01075C1F4FB1D1A02E89EE10
:140E100090E0FA01E80FF91FA0824F5F5F4F84E090E04817A3
:140E2400590774F39983888329EE30E004EA10E00BD544277C
:140E380055270DC08A01035C1F4F95D1A02E89EE90E0FA01EF
:140E4C00E80FF91FA0824F5F5F4F84E090E04817590774F30B
:140E60009983888329EE30E000EA10E0EFD4442755270DC0DF
:140E74008A010F5B1F4F79D1A02E89EE90E0FA01E80FF91FFE
:140E8800A0824F5F5F4F84E090E04817590774F399838883B7
:140E9C0029EE30E00CEA10E0D3D4442755270DC08A010B5BE9
:140EB0001F4F5DD1A02E89EE90E0FA01E80FF91FA0824F5F03
:140EC4005F4F84E090E04817590774F39983888329EE30E024
:140ED80008EA10E0B7D4442755270DC08A01075B1F4F41D178
:140EEC00A02E89EE90E0FA01E80FF91FA0824F5F5F4F84E051
:140F000090E04817590774F39983888329EE30E004EB10E01A
:140F14009BD4442755270DC08A01035B1F4F25D1A02E89EE14
:140F280090E0FA01E80FF91FA0824F5F5F4F84E090E048178A
:140F3C00590774F39983888329EE30E000EB10E07FD408EC6A
:140F500010E00DD1A02E2A2C3324322C22243092B900209273
:140F6400B80009EC10E001D1A02E2A2C33244090B800509027
:140F7800B900422853285092B9004092B8000AEC10E0F1D0FB
:140F8C00A02E2A2C3324322C22243092BB002092BA000BEC52
:140FA00010E0E5D0A02E2A2C33244090BA005090BB0042288E
:140FB40053285092BB004092BA000CEC10E0D5D0A02E2A2CD4
:140FC8003324322C22243092BD002092BC000DEC10E0C9D0AB
:140FDC00A02E2A2C33244090BC005090BD0042285328509296
:140FF000BD004092BC000EEC10E0B9D0A02E2A2C3324322C56
:1410040022243092BF002092BE000FEC10E0ADD0A02E2A2C15
:1410180033244090BE005090BF00422853285092BF004092E8
:14102C00BE0000ED10E09DD0A02E2A2C3324322C22243092C7
:14104000C1002092C00001ED10E091D0A02E2A2C33244090DF
:14105400C0005090C100422853285092C1004092C00002ED1E
:1410680010E081D0A02E2A2C3324322C22243092C3002092DD
:14107C00C20003ED10E075D0A02E2A2C33244090C20050908C
:14109000C300422853285092C3004092C20004ED10E065D055
:1410A400A02E2A2C3324322C22243092C5002092C40005ED2A
:1410B80010E059D0A02E2A2C33244090C4005090C5004228ED
:1410CC0053285092C5004092C40006ED10E049D0A02E2A2C38
:1410E0003324322C22243092C7002092C60007ED10E03DD00F
:1410F400A02E2A2C33244090C6005090C70042285328509269
:14110800C7004092C60008ED10E02DD0A02E2A2C3324322CB9
:14111C0022243092C9002092C80009ED10E021D0A02E2A2C79
:1411300033244090C8005090C900422853285092C9004092B1
:14114400C8002296E8C308950FB9213011F4BA9AC29880E49F
:141158008EB98EB180748034E1F7213011F4BA98C29A0FB1B9
:14116C000895E199FECF1FBB0EBBE09A0DB30895E199FECFCA
:1411800022242CBA1FBB0EBB2DBBE29AE19A0895F89488E11B
:141194008DB9D59A8BB381648BBB8AB386608ABB88B38C609A
:1411A80088BB85B7826085BF8BB780648BBF619A89B7816002
:1411BC0089BF8EB588608EBD78940895A3D3580103E010E016
:1411D0009501F4D358014427552702C04F5F5F4F4A155B0591
:1411E400D8F399C308953ED39BD3249780E0888389838A8375
:1411F8008B8310C041E050E060E070E0288039804A805B801E
:14120C00240E351E461E571E288239824A825B8228843984F9
:141220004A845B8444E650E060E070E05A924A923A922A92D3
:141234008A019B01D5D3288039804A805B802016310642061C
:141248005306C0F224966FD3249608954A935A932297209100
:14125C00690001E010E08CDF20916A0002E010E087DF2091D5
:141270006B0003E010E082DF20916C0004E010E07DDF2091CD
:141284006D0005E010E078DF20916E0006E010E073DF84E012
:1412980090E09983888324E730E009EE10E0D2D2442755271E
:1412AC000CC089EE90E0FA01E80FF91F20818A01075F1F4F71
:1412C0005DDF4F5F5F4F84E090E0481759077CF39983888359
:1412D40020E730E009EE10E0B7D2442755270CC089EE90E0E5
:1412E800FA01E80FF91F20818A01035F1F4F42DF4F5F5F4F6F
:1412FC0084E090E0481759077CF3998388832CE730E009EE9B
:1413100010E09CD2442755270CC089EE90E0FA01E80FF91FC7
:1413240020818A010F5E1F4F27DF4F5F5F4F84E090E0481719
:1413380059077CF39983888328E730E009EE10E081D24427E7
:14134C0055270CC089EE90E0FA01E80FF91F20818A010B5EBF
:141360001F4F0CDF4F5F5F4F84E090E0481759077CF39983A6
:14137400888324E830E009EE10E066D2442755270CC089EEF5
:1413880090E0FA01E80FF91F20818A01075E1F4FF1DE4F5F5B
:14139C005F4F84E090E0481759077CF39983888320E830E04E
:1413B00009EE10E04BD2442755270CC089EE90E0FA01E80F99
:1413C400F91F20818A01035E1F4FD6DE4F5F5F4F84E090E01E
:1413D800481759077CF3998388832CE830E009EE10E030D29F
:1413EC00442755270CC089EE90E0FA01E80FF91F20818A011D
:141400000F5D1F4FBBDE4F5F5F4F84E090E0481759077CF307
:141414009983888328E830E009EE10E015D2442755270CC0FC
:1414280089EE90E0FA01E80FF91F20818A010B5D1F4FA0DE3F
:14143C004F5F5F4F84E090E0481759077CF39983888324E90A
:1414500030E009EE10E0FAD1442755270CC089EE90E0FA0131
:14146400E80FF91F20818A01075D1F4F85DE4F5F5F4F84E044
:1414780090E0481759077CF39983888320E930E009EE10E09B
:14148C00DFD1442755270CC089EE90E0FA01E80FF91F208157
:1414A0008A01035D1F4F6ADE4F5F5F4F84E090E048175907A8
:1414B4007CF3998388832CE930E009EE10E0C4D14427552706
:1414C8000CC089EE90E0FA01E80FF91F20818A010F5C1F4F4E
:1414DC004FDE4F5F5F4F84E090E0481759077CF3998388834A
:1414F00028E930E009EE10E0A9D1442755270CC089EE90E0CC
:14150400FA01E80FF91F20818A010B5C1F4F34DE4F5F5F4F5A
:1415180084E090E0481759077CF39983888324EA30E009EE81
:14152C0010E08ED1442755270CC089EE90E0FA01E80FF91FB8
:1415400020818A01075C1F4F19DE4F5F5F4F84E090E0481714
:1415540059077CF39983888320EA30E009EE10E073D14427DD
:1415680055270CC089EE90E0FA01E80FF91F20818A01035CAB
:14157C001F4FFEDD4F5F5F4F84E090E0481759077CF3998398
:1415900088832CEA30E009EE10E058D1442755270CC089EEDC
:1415A40090E0FA01E80FF91F20818A010F5B1F4FE3DD4F5F47
:1415B8005F4F84E090E0481759077CF39983888328EA30E026
:1415CC0009EE10E03DD1442755270CC089EE90E0FA01E80F8A
:1415E000F91F20818A010B5B1F4FC8DD4F5F5F4F84E090E00A
:1415F400481759077CF39983888324EB30E009EE10E022D195
:14160800442755270CC089EE90E0FA01E80FF91F20818A01FE
:14161C00075B1F4FADDD4F5F5F4F84E090E0481759077CF302
:141630009983888320EB30E009EE10E007D1442755270CC0F2
:1416440089EE90E0FA01E80FF91F20818A01035B1F4F92DD3A
:141658004F5F5F4F84E090E0481759077CF32091B8003091F6
:14166C00B900232F332727FD309508EC10E080DD2091B80072
:141680002F7F09EC10E07ADD2091BA003091BB00232F3327D9
:1416940027FD30950AEC10E06FDD2091BA002F7F0BEC10E027
:1416A80069DD2091BC003091BD00232F332727FD30950CEC70
:1416BC0010E05EDD2091BC002F7F0DEC10E058DD2091BE0047
:1416D0003091BF00232F332727FD30950EEC10E04DDD20912C
:1416E400BE002F7F0FEC10E047DD2091C0003091C100232F32
:1416F800332727FD309500ED10E03CDD2091C0002F7F01ED98
:14170C0010E036DD2091C2003091C300232F332727FD30953A
:1417200002ED10E02BDD2091C2002F7F03ED10E025DD20911A
:14173400C4003091C500232F332727FD309504ED10E01ADDEA
:141748002091C4002F7F05ED10E014DD2091C6003091C70098
:14175C00232F332727FD309506ED10E009DD2091C6002F7FF6
:1417700007ED10E003DD2091C8003091C900232F332727FDCE
:14178400309508ED10E0F8DC2091C8002F7F09ED10E0F2DCF8
:1417980022965991499108958A939A938FB78A9381E090E0A6
:1417AC00909362008093610089918FBF99918991189518952A
:1417C0001895189518951895189518952A928A932FB62A928D
:1417D4008EB5887F8EBD83B7887F83BF20909E01222021F443
:1417E80022B62092AB0103C08FEF8093AB0181E080939E01A4
:1417FC00F89429902FBE89912990189518952A928A939A9374
:141810002FB62A9283B7887F83BF809165009091660001960C
:141824009093660080936500222422BE82E080939E012990BC
:141838002FBE999189912990189518951895189518951895A4
:14184C00A02FB12FE22FF32F888199818030980703C00190E0
:141860000D920197E1F708953A932A931A930A93089568945B
:14187400DA92D12E04C0E894DA92D12ED32617FF04C01095D2
:1418880000950F5F1F4F37FF04C0309520952F5F3F4F0BD070
:14189C00D7FE04C0109500950F5F1F4FD9900895689401C0C6
:1418B000E894EA92FA928A93EE24FF2480E1000F111FEE1CA4
:1418C400FF1CE216F30618F0E21AF30A03958A95A1F716F4AA
:1418D8000E2D1F2D8991F990E9900895A990B990C990D99078
:1418EC00E990F990499159916991799108957A936A935A938A
:141900004A93FA92EA92DA92CA92BA92AA9208955A934A9337
:14191400BA92AA920895A990B9904991599108957A936A93AD
:141928005A934A9308954991599169917991089500951095A5
:14193C00209530950F5F1F4F2F4F3F4F08958A929A92AA9214
:14195000BA92EA938A939A93AA93BA9389859A85AB85BC8548
:141964000895B991A99199918991E991B990A99099908990CC
:1419780024960895EE27E02BE12BE22BE32B0895EE27E82BF8
:14198C00E92BEA2BEB2B0895EA93FA930A92E02FF12FC89539
:1419A000002D3196C895102D3196C895202D3196C895302DB3
:1419B4000990F991E99108950A921A9200241124003001070C
:1419C80041F01695079510F4020E131E220F331FF5CF002DDA
:1419DC00112D199009900895B2DFCADFC9F088249924AA24B0
:1419F000BB24CADF79F0369527951795079520F4880E991EC2
:141A0400AA1EBB1E880F991FAA1FBB1FB5DF89F7082D192DAC
:141A18002A2D3B2DA4CF689401C0E89411D2A3D109F443C0F8
:141A2C00E62CD52CC42CB32EA22E912E802E008111812281CF
:141A4000338195D109F43FC0842D952D8C199D09B9F072F4AF
:141A54009095809501964C2C5D2C883190F53595279517953C
:141A680007950197D1F708C08831F8F4B594A7949794879437
:141A7C000197D1F766242EF0080D191D2A1D3B1D09C0801A01
:141A9000910AA20AB30A082D192D2A2D3B2D33231AF44ADF77
:141AA40080E8682E8AD101C0BDD1DBD1089500811181228187
:141AB8003381CEF75FD1B9F380E83827F4CF082D192D2A2D69
:141ACC003B2D4C2C5D2C6E2C332352F72FDF80E8682EE6CFA3
:141AE000FA93EA93EA81FB819CDFE991F99122960895FA93A0
:141AF400EA93EC2FFD2F329692DFE991F991249608954A92AA
:141B08005A926A928A933ED111F15520E2F08FE14816C0F4EA
:141B1C0087E14816D1F058F4419489EE481A05C035952795E9
:141B3000179507954A94D1F70EC087E1481A000F111F221F9B
:141B4400331F4A94D1F705C03FE7232F132F032F03C066209B
:141B580009F0EEDE89916990599049900895689401C0E89409
:141B6C002227332746F017FD209517FD309503C0689401C06A
:141B8000E8944A925A926A928A9387E1482E552466242EF0F5
:141B940033231AF4CFDE80E8682E0FD1899169905990499079
:141BA8000895FA93EA93EA81FB8127D0E991F991229608954B
:141BBC00FA93EA93EC2FFD2F32961DD0E991F99124960895B4
:141BD000FA93EA93EA81FB8114D0E991F991398328831A9314
:141BE4000A930895FA93EA93EC2FFD2F329607D0E991F991BF
:141BF8003B832A831983088308950A921A922A923A921ED1EB
:141C0C003A932A931A930A930081118122813381B7D009F402
:141C200053C0E62CD52CC42CB32EA22E912E802E0991199138
:141C340029913991A9D099F16E244C185D0880E8481653069B
:141C48000CF031C081E848168FEF58060CF433C080E233244C
:141C5C00232E122E012E302F222711270027269417940794AD
:141C700037952795000F111F221F331F001C111C221C331C30
:141C840028F0081819082A083B0804C0080C191C2A1C3B1CD4
:141C98000AF001608A9551F78ED0E1D03990299019900990A3
:141CAC0008950FEF102F2FE73FE76620A1F33EDEF2CF0027F0
:141CC000102F202F302FEDCF0991199129913991EECFBAD058
:141CD400AA93BA9359D091F1E62CD52CC42CA22E912E802E87
:141CE80000811181228133814DD031F16E244C0C5D1C80E874
:141CFC00481653061CF581E848168FEF58061CF188E1782E4D
:141D100088279927AA27BB27BB2EB695A79597958795279529
:141D24001795079520F4880D991DAA1DBB1D7A9491F73B2F65
:141D38002A2F192F082F3FD0B991A99190D008950FEF102FF2
:141D4C002FE73FE7F7CF0027102F202F302FF2CFFA93EA93A2
:141D6000EA81FB81B6DFE991F991229608950ED021F0662025
:141D740009F0E0DD98940895002329F4112319F4222309F419
:141D880033230895F7DF99F08A93632E80E86822220F331FD2
:141D9C00432E8FE7481A55248827580A269530E8232B3327E5
:141DB0008991989408954424552466240895DEDF09F40895DD
:141DC400AA93BA93D2019A938A938EE790E0332349F0369525
:141DD800279517950795A817B907CCF41196F5CF809590950F
:141DEC0001962223BAF0000F111F221FA817B90714F01197B2
:141E0000F6CF0027112722273327899199912D01B991A99111
:141E1400089533270FEF102F2FE7322F899199912D0102C0DB
:141E2800AA93BA93A7DF49F0D201A158BF4F2D01342D220FC3
:141E3C00369527953629B991A99108954A925A926A927A92BB
:141E50008A929A92AA92BA92CA92DA92EA92FA928A939A9394
:141E6400089599918991F990E990D990C990B990A99099901A
:141E7800899079906990599049900895CCDD332332F078DF64
:141E8C0011F001E00895002708950FEF0895FA93EA93EA81EF
:141EA000FB81F0DFE991F991229600230895FA93EA93EC2F42
:101EB400FD2F3296E5DFE991F991249600230895E8
:00000001FF
